//! Optimism receipt type for execution and storage.

use super::{OpDepositReceipt, OpTxReceipt};
use crate::OpTxType;
use alloc::vec::Vec;
use alloy_consensus::{
    Eip658Value, Eip2718EncodableReceipt, Receipt, ReceiptWithBloom, RlpDecodableReceipt,
    RlpEncodableReceipt, TxReceipt, Typed2718,
};
use alloy_eips::{
    Decodable2718, Encodable2718,
    eip2718::{Eip2718Result, IsTyped2718},
};
use alloy_primitives::{Bloom, Log};
use alloy_rlp::{BufMut, Decodable, Encodable, Header};

/// Typed Optimism transaction receipt.
///
/// Receipt containing result of transaction execution.
#[derive(Clone, Debug, PartialEq, Eq)]
#[cfg_attr(feature = "serde", derive(serde::Serialize, serde::Deserialize))]
#[cfg_attr(feature = "arbitrary", derive(arbitrary::Arbitrary))]
pub enum OpReceipt {
    /// Legacy receipt
    Legacy(Receipt),
    /// EIP-2930 receipt
    Eip2930(Receipt),
    /// EIP-1559 receipt
    Eip1559(Receipt),
    /// EIP-7702 receipt
    Eip7702(Receipt),
    /// Deposit receipt
    Deposit(OpDepositReceipt),
}

impl OpReceipt {
    /// Returns [`OpTxType`] of the receipt.
    pub const fn tx_type(&self) -> OpTxType {
        match self {
            Self::Legacy(_) => OpTxType::Legacy,
            Self::Eip2930(_) => OpTxType::Eip2930,
            Self::Eip1559(_) => OpTxType::Eip1559,
            Self::Eip7702(_) => OpTxType::Eip7702,
            Self::Deposit(_) => OpTxType::Deposit,
        }
    }

    /// Returns inner [`Receipt`].
    pub const fn as_receipt(&self) -> &Receipt {
        match self {
            Self::Legacy(receipt)
            | Self::Eip2930(receipt)
            | Self::Eip1559(receipt)
            | Self::Eip7702(receipt) => receipt,
            Self::Deposit(receipt) => &receipt.inner,
        }
    }

    /// Returns a mutable reference to the inner [`Receipt`].
    pub const fn as_receipt_mut(&mut self) -> &mut Receipt {
        match self {
            Self::Legacy(receipt)
            | Self::Eip2930(receipt)
            | Self::Eip1559(receipt)
            | Self::Eip7702(receipt) => receipt,
            Self::Deposit(receipt) => &mut receipt.inner,
        }
    }

    /// Consumes this and returns the inner [`Receipt`].
    pub fn into_receipt(self) -> Receipt {
        match self {
            Self::Legacy(receipt)
            | Self::Eip2930(receipt)
            | Self::Eip1559(receipt)
            | Self::Eip7702(receipt) => receipt,
            Self::Deposit(receipt) => receipt.inner,
        }
    }

    /// Returns length of RLP-encoded receipt fields with the given [`Bloom`] without an RLP header.
    pub fn rlp_encoded_fields_length(&self, bloom: &Bloom) -> usize {
        match self {
            Self::Legacy(receipt)
            | Self::Eip2930(receipt)
            | Self::Eip1559(receipt)
            | Self::Eip7702(receipt) => receipt.rlp_encoded_fields_length_with_bloom(bloom),
            Self::Deposit(receipt) => receipt.rlp_encoded_fields_length_with_bloom(bloom),
        }
    }

    /// RLP-encodes receipt fields with the given [`Bloom`] without an RLP header.
    pub fn rlp_encode_fields(&self, bloom: &Bloom, out: &mut dyn BufMut) {
        match self {
            Self::Legacy(receipt)
            | Self::Eip2930(receipt)
            | Self::Eip1559(receipt)
            | Self::Eip7702(receipt) => receipt.rlp_encode_fields_with_bloom(bloom, out),
            Self::Deposit(receipt) => receipt.rlp_encode_fields_with_bloom(bloom, out),
        }
    }

    /// Returns RLP header for inner encoding.
    pub fn rlp_header_inner(&self, bloom: &Bloom) -> Header {
        Header { list: true, payload_length: self.rlp_encoded_fields_length(bloom) }
    }

    /// Returns RLP header for inner encoding without bloom.
    pub fn rlp_header_inner_without_bloom(&self) -> Header {
        Header { list: true, payload_length: self.rlp_encoded_fields_length_without_bloom() }
    }

    /// RLP-decodes the receipt from the provided buffer. This does not expect a type byte or
    /// network header.
    pub fn rlp_decode_inner(
        buf: &mut &[u8],
        tx_type: OpTxType,
    ) -> alloy_rlp::Result<ReceiptWithBloom<Self>> {
        match tx_type {
            OpTxType::Legacy => {
                let ReceiptWithBloom { receipt, logs_bloom } =
                    RlpDecodableReceipt::rlp_decode_with_bloom(buf)?;
                Ok(ReceiptWithBloom { receipt: Self::Legacy(receipt), logs_bloom })
            }
            OpTxType::Eip2930 => {
                let ReceiptWithBloom { receipt, logs_bloom } =
                    RlpDecodableReceipt::rlp_decode_with_bloom(buf)?;
                Ok(ReceiptWithBloom { receipt: Self::Eip2930(receipt), logs_bloom })
            }
            OpTxType::Eip1559 => {
                let ReceiptWithBloom { receipt, logs_bloom } =
                    RlpDecodableReceipt::rlp_decode_with_bloom(buf)?;
                Ok(ReceiptWithBloom { receipt: Self::Eip1559(receipt), logs_bloom })
            }
            OpTxType::Eip7702 => {
                let ReceiptWithBloom { receipt, logs_bloom } =
                    RlpDecodableReceipt::rlp_decode_with_bloom(buf)?;
                Ok(ReceiptWithBloom { receipt: Self::Eip7702(receipt), logs_bloom })
            }
            OpTxType::Deposit => {
                let ReceiptWithBloom { receipt, logs_bloom } =
                    RlpDecodableReceipt::rlp_decode_with_bloom(buf)?;
                Ok(ReceiptWithBloom { receipt: Self::Deposit(receipt), logs_bloom })
            }
        }
    }

    /// RLP-encodes receipt fields without an RLP header.
    pub fn rlp_encode_fields_without_bloom(&self, out: &mut dyn BufMut) {
        match self {
            Self::Legacy(receipt)
            | Self::Eip2930(receipt)
            | Self::Eip1559(receipt)
            | Self::Eip7702(receipt) => {
                receipt.status.encode(out);
                receipt.cumulative_gas_used.encode(out);
                receipt.logs.encode(out);
            }
            Self::Deposit(receipt) => {
                receipt.inner.status.encode(out);
                receipt.inner.cumulative_gas_used.encode(out);
                receipt.inner.logs.encode(out);
                if let Some(nonce) = receipt.deposit_nonce {
                    nonce.encode(out);
                }
                if let Some(version) = receipt.deposit_receipt_version {
                    version.encode(out);
                }
            }
        }
    }

    /// Returns length of RLP-encoded receipt fields without an RLP header.
    pub fn rlp_encoded_fields_length_without_bloom(&self) -> usize {
        match self {
            Self::Legacy(receipt)
            | Self::Eip2930(receipt)
            | Self::Eip1559(receipt)
            | Self::Eip7702(receipt) => {
                receipt.status.length()
                    + receipt.cumulative_gas_used.length()
                    + receipt.logs.length()
            }
            Self::Deposit(receipt) => {
                receipt.inner.status.length()
                    + receipt.inner.cumulative_gas_used.length()
                    + receipt.inner.logs.length()
                    + receipt.deposit_nonce.map_or(0, |nonce| nonce.length())
                    + receipt.deposit_receipt_version.map_or(0, |version| version.length())
            }
        }
    }

    /// RLP-decodes the receipt from the provided buffer without bloom.
    pub fn rlp_decode_inner_without_bloom(
        buf: &mut &[u8],
        tx_type: OpTxType,
    ) -> alloy_rlp::Result<Self> {
        let header = Header::decode(buf)?;
        if !header.list {
            return Err(alloy_rlp::Error::UnexpectedString);
        }

        let remaining = buf.len();
        let status = Decodable::decode(buf)?;
        let cumulative_gas_used = Decodable::decode(buf)?;
        let logs = Decodable::decode(buf)?;

        let mut deposit_nonce = None;
        let mut deposit_receipt_version = None;

        // For deposit receipts, try to decode nonce and version if they exist
        if tx_type == OpTxType::Deposit && buf.len() + header.payload_length > remaining {
            deposit_nonce = Some(Decodable::decode(buf)?);
            if buf.len() + header.payload_length > remaining {
                deposit_receipt_version = Some(Decodable::decode(buf)?);
            }
        }

        if buf.len() + header.payload_length != remaining {
            return Err(alloy_rlp::Error::UnexpectedLength);
        }

        match tx_type {
            OpTxType::Legacy => Ok(Self::Legacy(Receipt { status, cumulative_gas_used, logs })),
            OpTxType::Eip2930 => Ok(Self::Eip2930(Receipt { status, cumulative_gas_used, logs })),
            OpTxType::Eip1559 => Ok(Self::Eip1559(Receipt { status, cumulative_gas_used, logs })),
            OpTxType::Eip7702 => Ok(Self::Eip7702(Receipt { status, cumulative_gas_used, logs })),
            OpTxType::Deposit => Ok(Self::Deposit(OpDepositReceipt {
                inner: Receipt { status, cumulative_gas_used, logs },
                deposit_nonce,
                deposit_receipt_version,
            })),
        }
    }
}

impl Eip2718EncodableReceipt for OpReceipt {
    fn eip2718_encoded_length_with_bloom(&self, bloom: &Bloom) -> usize {
        !self.tx_type().is_legacy() as usize + self.rlp_header_inner(bloom).length_with_payload()
    }

    fn eip2718_encode_with_bloom(&self, bloom: &Bloom, out: &mut dyn BufMut) {
        if !self.tx_type().is_legacy() {
            out.put_u8(self.tx_type() as u8);
        }
        self.rlp_header_inner(bloom).encode(out);
        self.rlp_encode_fields(bloom, out);
    }
}

impl RlpEncodableReceipt for OpReceipt {
    fn rlp_encoded_length_with_bloom(&self, bloom: &Bloom) -> usize {
        let mut len = self.eip2718_encoded_length_with_bloom(bloom);
        if !self.tx_type().is_legacy() {
            len += Header {
                list: false,
                payload_length: self.eip2718_encoded_length_with_bloom(bloom),
            }
            .length();
        }

        len
    }

    fn rlp_encode_with_bloom(&self, bloom: &Bloom, out: &mut dyn BufMut) {
        if !self.tx_type().is_legacy() {
            Header { list: false, payload_length: self.eip2718_encoded_length_with_bloom(bloom) }
                .encode(out);
        }
        self.eip2718_encode_with_bloom(bloom, out);
    }
}

impl RlpDecodableReceipt for OpReceipt {
    fn rlp_decode_with_bloom(buf: &mut &[u8]) -> alloy_rlp::Result<ReceiptWithBloom<Self>> {
        let header_buf = &mut &**buf;
        let header = Header::decode(header_buf)?;

        // Legacy receipt, reuse initial buffer without advancing
        if header.list {
            return Self::rlp_decode_inner(buf, OpTxType::Legacy);
        }

        // Otherwise, advance the buffer and try decoding type flag followed by receipt
        *buf = *header_buf;

        let remaining = buf.len();
        let tx_type = OpTxType::decode(buf)?;
        let this = Self::rlp_decode_inner(buf, tx_type)?;

        if buf.len() + header.payload_length != remaining {
            return Err(alloy_rlp::Error::UnexpectedLength);
        }

        Ok(this)
    }
}

impl Encodable2718 for OpReceipt {
    fn encode_2718_len(&self) -> usize {
        !self.tx_type().is_legacy() as usize
            + self.rlp_header_inner_without_bloom().length_with_payload()
    }

    fn encode_2718(&self, out: &mut dyn BufMut) {
        if !self.tx_type().is_legacy() {
            out.put_u8(self.tx_type() as u8);
        }
        self.rlp_header_inner_without_bloom().encode(out);
        self.rlp_encode_fields_without_bloom(out);
    }
}

impl Decodable2718 for OpReceipt {
    fn typed_decode(ty: u8, buf: &mut &[u8]) -> Eip2718Result<Self> {
        Ok(Self::rlp_decode_inner_without_bloom(buf, OpTxType::try_from(ty)?)?)
    }

    fn fallback_decode(buf: &mut &[u8]) -> Eip2718Result<Self> {
        Ok(Self::rlp_decode_inner_without_bloom(buf, OpTxType::Legacy)?)
    }
}

impl Encodable for OpReceipt {
    fn encode(&self, out: &mut dyn BufMut) {
        self.network_encode(out);
    }

    fn length(&self) -> usize {
        self.network_len()
    }
}

impl Decodable for OpReceipt {
    fn decode(buf: &mut &[u8]) -> alloy_rlp::Result<Self> {
        Ok(Self::network_decode(buf)?)
    }
}

impl TxReceipt for OpReceipt {
    type Log = Log;

    fn status_or_post_state(&self) -> Eip658Value {
        self.as_receipt().status_or_post_state()
    }

    fn status(&self) -> bool {
        self.as_receipt().status()
    }

    fn bloom(&self) -> Bloom {
        self.as_receipt().bloom()
    }

    fn cumulative_gas_used(&self) -> u64 {
        self.as_receipt().cumulative_gas_used()
    }

    fn logs(&self) -> &[Log] {
        self.as_receipt().logs()
    }

    fn into_logs(self) -> Vec<Self::Log> {
        match self {
            Self::Legacy(receipt)
            | Self::Eip2930(receipt)
            | Self::Eip1559(receipt)
            | Self::Eip7702(receipt) => receipt.logs,
            Self::Deposit(receipt) => receipt.inner.logs,
        }
    }
}

impl Typed2718 for OpReceipt {
    fn ty(&self) -> u8 {
        self.tx_type().into()
    }
}

impl IsTyped2718 for OpReceipt {
    fn is_type(type_id: u8) -> bool {
        <OpTxType as IsTyped2718>::is_type(type_id)
    }
}

impl OpTxReceipt for OpReceipt {
    fn deposit_nonce(&self) -> Option<u64> {
        match self {
            Self::Deposit(receipt) => receipt.deposit_nonce,
            _ => None,
        }
    }

    fn deposit_receipt_version(&self) -> Option<u64> {
        match self {
            Self::Deposit(receipt) => receipt.deposit_receipt_version,
            _ => None,
        }
    }
}

impl From<super::OpReceiptEnvelope> for OpReceipt {
    fn from(envelope: super::OpReceiptEnvelope) -> Self {
        match envelope {
            super::OpReceiptEnvelope::Legacy(receipt) => Self::Legacy(receipt.receipt),
            super::OpReceiptEnvelope::Eip2930(receipt) => Self::Eip2930(receipt.receipt),
            super::OpReceiptEnvelope::Eip1559(receipt) => Self::Eip1559(receipt.receipt),
            super::OpReceiptEnvelope::Eip7702(receipt) => Self::Eip7702(receipt.receipt),
            super::OpReceiptEnvelope::Deposit(receipt) => Self::Deposit(OpDepositReceipt {
                deposit_nonce: receipt.receipt.deposit_nonce,
                deposit_receipt_version: receipt.receipt.deposit_receipt_version,
                inner: receipt.receipt.inner,
            }),
        }
    }
}

/// Bincode-compatible serde implementations for opreceipt type.
#[cfg(all(feature = "serde", feature = "serde-bincode-compat"))]
pub(crate) mod serde_bincode_compat {
    use serde::{Deserialize, Deserializer, Serialize, Serializer};
    use serde_with::{DeserializeAs, SerializeAs};

    /// Bincode-compatible [`super::OpReceipt`] serde implementation.
    ///
    /// Intended to use with the [`serde_with::serde_as`] macro in the following way:
    /// ```rust
    /// use op_alloy_consensus::{OpReceipt, serde_bincode_compat};
    /// use serde::{Deserialize, Serialize, de::DeserializeOwned};
    /// use serde_with::serde_as;
    ///
    /// #[serde_as]
    /// #[derive(Serialize, Deserialize)]
    /// struct Data {
    ///     #[serde_as(as = "serde_bincode_compat::OpReceipt<'_>")]
    ///     receipt: OpReceipt,
    /// }
    /// ```
    #[derive(Debug, Serialize, Deserialize)]
    pub enum OpReceipt<'a> {
        /// Legacy receipt
        Legacy(alloy_consensus::serde_bincode_compat::Receipt<'a, alloy_primitives::Log>),
        /// EIP-2930 receipt
        Eip2930(alloy_consensus::serde_bincode_compat::Receipt<'a, alloy_primitives::Log>),
        /// EIP-1559 receipt
        Eip1559(alloy_consensus::serde_bincode_compat::Receipt<'a, alloy_primitives::Log>),
        /// EIP-7702 receipt
        Eip7702(alloy_consensus::serde_bincode_compat::Receipt<'a, alloy_primitives::Log>),
        /// Deposit receipt
        Deposit(crate::serde_bincode_compat::OpDepositReceipt<'a, alloy_primitives::Log>),
    }

    impl<'a> From<&'a super::OpReceipt> for OpReceipt<'a> {
        fn from(value: &'a super::OpReceipt) -> Self {
            match value {
                super::OpReceipt::Legacy(receipt) => Self::Legacy(receipt.into()),
                super::OpReceipt::Eip2930(receipt) => Self::Eip2930(receipt.into()),
                super::OpReceipt::Eip1559(receipt) => Self::Eip1559(receipt.into()),
                super::OpReceipt::Eip7702(receipt) => Self::Eip7702(receipt.into()),
                super::OpReceipt::Deposit(receipt) => Self::Deposit(receipt.into()),
            }
        }
    }

    impl<'a> From<OpReceipt<'a>> for super::OpReceipt {
        fn from(value: OpReceipt<'a>) -> Self {
            match value {
                OpReceipt::Legacy(receipt) => Self::Legacy(receipt.into()),
                OpReceipt::Eip2930(receipt) => Self::Eip2930(receipt.into()),
                OpReceipt::Eip1559(receipt) => Self::Eip1559(receipt.into()),
                OpReceipt::Eip7702(receipt) => Self::Eip7702(receipt.into()),
                OpReceipt::Deposit(receipt) => Self::Deposit(receipt.into()),
            }
        }
    }

    impl SerializeAs<super::OpReceipt> for OpReceipt<'_> {
        fn serialize_as<S>(source: &super::OpReceipt, serializer: S) -> Result<S::Ok, S::Error>
        where
            S: Serializer,
        {
            OpReceipt::<'_>::from(source).serialize(serializer)
        }
    }

    impl<'de> DeserializeAs<'de, super::OpReceipt> for OpReceipt<'de> {
        fn deserialize_as<D>(deserializer: D) -> Result<super::OpReceipt, D::Error>
        where
            D: Deserializer<'de>,
        {
            OpReceipt::<'_>::deserialize(deserializer).map(Into::into)
        }
    }

    #[cfg(test)]
    mod tests {
        use crate::{OpReceipt, receipt::serde_bincode_compat};
        use arbitrary::Arbitrary;
        use rand::Rng;
        use serde::{Deserialize, Serialize};
        use serde_with::serde_as;

        #[test]
        fn test_tx_bincode_roundtrip() {
            #[serde_as]
            #[derive(Debug, PartialEq, Eq, Serialize, Deserialize)]
            struct Data {
                #[serde_as(as = "serde_bincode_compat::OpReceipt<'_>")]
                receipt: OpReceipt,
            }

            let mut bytes = [0u8; 1024];
            rand::rng().fill(bytes.as_mut_slice());
            let mut data = Data {
                receipt: OpReceipt::arbitrary(&mut arbitrary::Unstructured::new(&bytes)).unwrap(),
            };
            let success = data.receipt.as_receipt_mut().status.coerce_status();
            // // ensure we don't have an invalid poststate variant
            data.receipt.as_receipt_mut().status = success.into();

            let encoded = bincode::serialize(&data).unwrap();
            let decoded: Data = bincode::deserialize(&encoded).unwrap();
            assert_eq!(decoded, data);
        }
    }
}

#[cfg(test)]
mod tests {
    use super::*;
    use alloc::vec;
    use alloy_primitives::{Bytes, address, b256, bytes, hex_literal::hex};
    use alloy_rlp::Encodable;

    // Test vector from: https://eips.ethereum.org/EIPS/eip-2481
    #[test]
    fn encode_legacy_receipt() {
        let expected = hex!(
            "f901668001b9010000000000000000000000000000000000000000000000000000000000000000000000000000000000000000000000000000000000000000000000000000000000000000000000000000000000000000000000000000000000000000000000000000000000000000000000000000000000000000000000000000000000000000000000000000000000000000000000000000000000000000000000000000000000000000000000000000000000000000000000000000000000000000000000000000000000000000000000000000000000000000000000000000000000000000000000000000000000000000000000000000000000000000000000000000000000f85ff85d940000000000000000000000000000000000000011f842a0000000000000000000000000000000000000000000000000000000000000deada0000000000000000000000000000000000000000000000000000000000000beef830100ff"
        );

        let mut data = Vec::with_capacity(expected.length());
        let receipt = ReceiptWithBloom {
            receipt: OpReceipt::Legacy(Receipt {
                status: Eip658Value::Eip658(false),
                cumulative_gas_used: 0x1,
                logs: vec![Log::new_unchecked(
                    address!("0x0000000000000000000000000000000000000011"),
                    vec![
                        b256!("0x000000000000000000000000000000000000000000000000000000000000dead"),
                        b256!("0x000000000000000000000000000000000000000000000000000000000000beef"),
                    ],
                    bytes!("0100ff"),
                )],
            }),
            logs_bloom: [0; 256].into(),
        };

        receipt.encode(&mut data);

        // check that the rlp length equals the length of the expected rlp
        assert_eq!(receipt.length(), expected.len());
        assert_eq!(data, expected);
    }

    // Test vector from: https://eips.ethereum.org/EIPS/eip-2481
    #[test]
    fn decode_legacy_receipt() {
        let data = hex!(
            "f901668001b9010000000000000000000000000000000000000000000000000000000000000000000000000000000000000000000000000000000000000000000000000000000000000000000000000000000000000000000000000000000000000000000000000000000000000000000000000000000000000000000000000000000000000000000000000000000000000000000000000000000000000000000000000000000000000000000000000000000000000000000000000000000000000000000000000000000000000000000000000000000000000000000000000000000000000000000000000000000000000000000000000000000000000000000000000000000000f85ff85d940000000000000000000000000000000000000011f842a0000000000000000000000000000000000000000000000000000000000000deada0000000000000000000000000000000000000000000000000000000000000beef830100ff"
        );

        // EIP658Receipt
        let expected = ReceiptWithBloom {
            receipt: OpReceipt::Legacy(Receipt {
                status: Eip658Value::Eip658(false),
                cumulative_gas_used: 0x1,
                logs: vec![Log::new_unchecked(
                    address!("0x0000000000000000000000000000000000000011"),
                    vec![
                        b256!("0x000000000000000000000000000000000000000000000000000000000000dead"),
                        b256!("0x000000000000000000000000000000000000000000000000000000000000beef"),
                    ],
                    bytes!("0100ff"),
                )],
            }),
            logs_bloom: [0; 256].into(),
        };

        let receipt = ReceiptWithBloom::decode(&mut &data[..]).unwrap();
        assert_eq!(receipt, expected);
    }

    #[test]
    fn decode_deposit_receipt_regolith_roundtrip() {
        let data = hex!(
            "b901107ef9010c0182b741b9010000000000000000000000000000000000000000000000000000000000000000000000000000000000000000000000000000000000000000000000000000000000000000000000000000000000000000000000000000000000000000000000000000000000000000000000000000000000000000000000000000000000000000000000000000000000000000000000000000000000000000000000000000000000000000000000000000000000000000000000000000000000000000000000000000000000000000000000000000000000000000000000000000000000000000000000000000000000000000000000000000000000000000000000000000000000c0833d3bbf"
        );

        // Deposit Receipt (post-regolith)
        let expected = ReceiptWithBloom {
            receipt: OpReceipt::Deposit(OpDepositReceipt {
                inner: Receipt {
                    status: Eip658Value::Eip658(true),
                    cumulative_gas_used: 46913,
                    logs: vec![],
                },
                deposit_nonce: Some(4012991),
                deposit_receipt_version: None,
            }),
            logs_bloom: [0; 256].into(),
        };

        let receipt = ReceiptWithBloom::decode(&mut &data[..]).unwrap();
        assert_eq!(receipt, expected);

        let mut buf = Vec::with_capacity(data.len());
        receipt.encode(&mut buf);
        assert_eq!(buf, &data[..]);
    }

    #[test]
    fn decode_deposit_receipt_canyon_roundtrip() {
        let data = hex!(
            "b901117ef9010d0182b741b9010000000000000000000000000000000000000000000000000000000000000000000000000000000000000000000000000000000000000000000000000000000000000000000000000000000000000000000000000000000000000000000000000000000000000000000000000000000000000000000000000000000000000000000000000000000000000000000000000000000000000000000000000000000000000000000000000000000000000000000000000000000000000000000000000000000000000000000000000000000000000000000000000000000000000000000000000000000000000000000000000000000000000000000000000000000000c0833d3bbf01"
        );

        // Deposit Receipt (post-canyon)
        let expected = ReceiptWithBloom {
            receipt: OpReceipt::Deposit(OpDepositReceipt {
                inner: Receipt {
                    status: Eip658Value::Eip658(true),
                    cumulative_gas_used: 46913,
                    logs: vec![],
                },
                deposit_nonce: Some(4012991),
                deposit_receipt_version: Some(1),
            }),
            logs_bloom: [0; 256].into(),
        };

        let receipt = ReceiptWithBloom::decode(&mut &data[..]).unwrap();
        assert_eq!(receipt, expected);

        let mut buf = Vec::with_capacity(data.len());
        expected.encode(&mut buf);
        assert_eq!(buf, &data[..]);
    }

    #[test]
    fn gigantic_receipt() {
        let receipt = OpReceipt::Legacy(Receipt {
            status: Eip658Value::Eip658(true),
            cumulative_gas_used: 16747627,
            logs: vec![
                Log::new_unchecked(
                    address!("0x4bf56695415f725e43c3e04354b604bcfb6dfb6e"),
                    vec![b256!(
                        "0xc69dc3d7ebff79e41f525be431d5cd3cc08f80eaf0f7819054a726eeb7086eb9"
                    )],
                    Bytes::from(vec![1; 0xffffff]),
                ),
                Log::new_unchecked(
                    address!("0xfaca325c86bf9c2d5b413cd7b90b209be92229c2"),
                    vec![b256!(
                        "0x8cca58667b1e9ffa004720ac99a3d61a138181963b294d270d91c53d36402ae2"
                    )],
                    Bytes::from(vec![1; 0xffffff]),
                ),
            ],
        });

        let _bloom = receipt.bloom();
        let mut encoded = vec![];
        receipt.encode(&mut encoded);

        let decoded = OpReceipt::decode(&mut &encoded[..]).unwrap();
        assert_eq!(decoded, receipt);
    }

    #[test]
    fn test_encode_2718_length() {
        let receipt = ReceiptWithBloom {
            receipt: OpReceipt::Eip1559(Receipt {
                status: Eip658Value::Eip658(true),
                cumulative_gas_used: 21000,
                logs: vec![],
            }),
            logs_bloom: Bloom::default(),
        };

        let encoded = receipt.encoded_2718();
        assert_eq!(
            encoded.len(),
            receipt.encode_2718_len(),
            "Encoded length should match the actual encoded data length"
        );

        // Test for legacy receipt as well
        let legacy_receipt = ReceiptWithBloom {
            receipt: OpReceipt::Legacy(Receipt {
                status: Eip658Value::Eip658(true),
                cumulative_gas_used: 21000,
                logs: vec![],
            }),
            logs_bloom: Bloom::default(),
        };

        let legacy_encoded = legacy_receipt.encoded_2718();
        assert_eq!(
            legacy_encoded.len(),
            legacy_receipt.encode_2718_len(),
            "Encoded length for legacy receipt should match the actual encoded data length"
        );
    }
}
